:020000040800F2
:1000000000C0002011070008590600085F0600081C
:10001000650600086B060008710600080000000075
:10002000000000000000000000000000812B00081C
:100030007706000800000000612D0008A92D0008C7
:100040005907000859070008590700085907000810
:100050005907000859070008590700085907000800
:1000600059070008590700085907000859070008F0
:1000700059070008590700085907000859070008E0
:1000800059070008590700085907000859070008D0
:1000900059070008590700085907000859070008C0
:1000A00059070008590700085907000859070008B0
:1000B0005907000859070008850600085907000875
:1000C0005907000859070008590700085907000890
:1000D0005907000859070008590700085907000880
:1000E0005907000859070008590700085907000870
:1000F0005907000859070008590700085907000860
:10010000590700085907000859070008590700084F
:10011000590700085907000859070008590700083F
:10012000590700085907000859070008590700082F
:1001300000000000000000000000000000000000BF
:1001400000000000000000000000000000000000AF
:10015000000000000000000000000000000000009F
:10016000000000000000000000000000000000008F
:10017000000000000000000000000000000000007F
:10018000000000000000000000000000000000006F
:10019000000000000000000000000000000000005F
:1001A000000000000000000000000000000000004F
:1001B000000000000000000000000000000000003F
:1001C000000000000000000000000000000000002F
:1001D000000000000000000000000000000000001F
:0401E0005FF8E0F1F3
:1001F00010B5054C237833B9044B13B10448AFF361
:1002000000800123237010BD740000200000000056
:100210000C3B000808B5034B1BB103490348AFF37F
:10022000008008BD00000000780000200C3B0008A2
:1002300080B485B000AFF860B9607A60FB68064AA8
:100240001A60BB68054A1A607B6880221A6000BF8A
:100250001437BD4680BC704790000020E4000020A9
:10026000B0B58EB000AF00F079FA00F033F800F0CE
:10027000A1F800F075F8134B07F11C041D460FCDD3
:100280000FC495E8070084E8070007F11C0300216C
:10029000184601F0EDFD03460B4A13600B4B3C463C
:1002A0001D460FCD0FC495E8070084E807003B46C4
:1002B0000021184601F0DCFD0346054A136001F0F9
:1002C000D0FDFEE73C3B000890100020583B0008A2
:1002D0008C10002080B590B000AF07F118032822E1
:1002E0000021184602F0C4FF3B1D00221A605A602C
:1002F0009A60DA601A610123BB614FF48033FB61BD
:1003000000233B620123BB6202237B634FF48033F3
:10031000BB634FF4E013FB6307F11803184600F0CA
:10032000C3FC0346002B01D000F094F80F237B6040
:100330000223BB600023FB604FF480633B6100231A
:100340007B613B1D0221184600F02EFF0346002B67
:1003500001D000F07FF800BF4037BD4680BD0000EF
:1003600080B500AF114B124A1A60104B4FF4E132C6
:100370005A600E4B00229A600C4B0022DA600B4B45
:1003800000221A61094B0C225A61084B00229A6123
:10039000064B0022DA61054801F028FB0346002BDA
:1003A00001D000F057F800BF80BD00BF441000200E
:1003B0000038014080B483B000AF0E4B9B690D4AFA
:1003C00043F0200393610B4B9B6903F020037B6098
:1003D0007B68084B9B69074A43F004039361054B14
:1003E0009B6903F004033B603B6800BF0C37BD46CC
:1003F00080BC70470010024080B582B000AF7860CA
:10040000034800F02DF84FF47A7001F07DFDF7E716
:10041000743B000880B582B000AF7860034800F0FC
:100420001FF84FF47A7001F06FFDF7E77C3B00088E
:1004300080B582B000AF78607B681B68044A934245
:1004400001D100F0A1F900BF0837BD4680BD00BF53
:100450000008004080B400AF72B600BFFEE70000A5
:100460000FB480B582B000AF07F114037B607B68E6
:100470003A692821084802F02FFF4FF47A732822A6
:100480000549064801F002FB00BF0837BD46BDE83C
:10049000804004B0704700BF94100020441000203A
:1004A00080B584B000AF184B9B69174A43F0010335
:1004B0009361154B9B6903F00103BB60BB68124B52
:1004C000DB69114A43F08053D3610F4BDB6903F0C2
:1004D00080537B607B6800220F216FF0010000F0E9
:1004E00024FA0A4B5B68FB60FB6823F0E063FB6067
:1004F000FB6843F00073FB60044AFB68536000BF75
:100500001037BD4680BD00BF001002400000014012
:1005100080B588B000AF786007F1100300221A6040
:100520005A609A60DA607B681B681C4A934231D13A
:100530001B4B9B691A4A43F480439361184B9B6998
:1005400003F48043FB60FB68154B9B69144A43F03E
:1005500004039361124B9B6903F00403BB60BB6807
:100560004FF400733B6102237B610323FB6107F1BE
:10057000100319460B4800F003FA4FF480633B6107
:1005800000237B610023BB6107F110031946054876
:1005900000F0F6F900BF2037BD4680BD00380140AD
:1005A000001002400008014080B58CB000AF7860B8
:1005B0000023FB620023BB62002279681E2000F04A
:1005C000B4F91E2000F0CDF91F4BDB691E4A43F041
:1005D0000403D3611C4BDB6903F00403FB60FB687D
:1005E00007F1100207F114031146184600F04CFF02
:1005F00000F022FF03465B00FB62FB6A134AA2FB8A
:1006000003239B0C013BBB62114B124A1A60104B37
:1006100040F2E732DA600E4ABB6A53600C4B0022AC
:100620001A610B4B00229A60094800F07BFF0346D9
:10063000002B04D1064800F0CDFF034600E0012363
:1006400018463037BD4680BD0010024083DE1B4394
:10065000BC1000200008004080B400AFFEE780B46A
:1006600000AFFEE780B400AFFEE780B400AFFEE766
:1006700080B400AFFEE780B400AF00BFBD4680BCD1
:100680007047000080B500AF024801F003F800BFDA
:1006900080BD00BFBC10002080B586B000AF786080
:1006A000144A154BD31A7B617B693B61134B1B6862
:1006B000002B02D1114B124A1A60104B1A687B684A
:1006C00013443A699A4207D202F09AFD03460C227B
:1006D0001A604FF0FF3309E0084B1B68FB60074BC3
:1006E0001A687B681344054A1360FB68184618377C
:1006F000BD4680BD00C0002000040000E4020020D0
:100700001811002080B400AF00BFBD4680BC704708
:10071000FFF7F8FF0B480C490C4A002302E0D458BD
:10072000C4500433C4188C42F9D3094A094C00233D
:1007300001E013600432A242FBD302F067FDFFF731
:100740008FFD70470000002074000020F43B00087B
:100750007400002018110020FEE7000080B500AFF3
:10076000084B1B68074A43F010031360032000F096
:10077000D1F80F20FFF718FFFFF792FE002318466D
:1007800080BD00BF0020024080B400AF054B1B7845
:100790001A46054B1B681344034A136000BFBD464D
:1007A00080BC7047080000200411002080B400AF16
:1007B000024B1B681846BD4680BC704704110020E0
:1007C00080B485B000AF78607B6803F00703FB60FE
:1007D0000C4BDB68BB60BA684FF6FF031340BB608D
:1007E000FB681A02BB68134343F0BF6343F4003352
:1007F000BB60044ABB68D36000BF1437BD4680BCF1
:10080000704700BF00ED00E080B400AF044BDB6830
:100810001B0A03F007031846BD4680BC704700BFA3
:1008200000ED00E080B483B000AF0346FB7197F9A0
:100830000730002B0BDBFB7903F01F02064997F909
:1008400007305B09012000FA02F241F8232000BFC3
:100850000C37BD4680BC704700E100E080B483B037
:1008600000AF03463960FB7197F90730002B0ADBB4
:100870003B68DAB20C4997F907301201D2B20B4447
:1008800083F800230AE03B68DAB20849FB7903F0F9
:100890000F03043B1201D2B20B441A7600BF0C378F
:1008A000BD4680BC704700BF00E100E000ED00E005
:1008B00080B489B000AFF860B9607A60FB6803F07B
:1008C0000703FB61FB69C3F10703042B28BF042363
:1008D000BB61FB690433062B02D9FB69033B00E0D3
:1008E00000237B614FF0FF32BB6902FA03F3DA4366
:1008F000BB681A407B699A404FF0FF317B6901FA6F
:1009000003F3D9437B680B40134318462437BD4695
:1009100080BC704780B582B000AF78607868FFF720
:100920004FFF00BF0837BD4680BD80B586B000AF21
:100930000346B9607A60FB7300237B61FFF764FFB5
:1009400078617A68B9687869FFF7B2FF024697F96B
:100950000F3011461846FFF781FF00BF1837BD461C
:1009600080BD80B582B000AF0346FB7197F90730B8
:100970001846FFF757FF00BF0837BD4680BD00008F
:1009800080B48BB000AF7860396000237B620023B5
:100990003B6279E101227B6A02FA03F3FB613B6867
:1009A0001B68FA691340BB61BA69FB699A4240F05F
:1009B00068813B685B68A04A93425ED09E4A93423E
:1009C00075D89E4A934258D09C4A93426FD89C4A0D
:1009D000934252D09A4A934269D89A4A93424CD051
:1009E000984A934263D8984A934246D0964A934293
:1009F0005DD8122B2AD8122B59D801A252F823F015
:100A00007B0A0008550A0008670A0008A90A0008BE
:100A1000AF0A0008AF0A0008AF0A0008AF0A0008D2
:100A2000AF0A0008AF0A0008AF0A0008AF0A0008C2
:100A3000AF0A0008AF0A0008AF0A0008AF0A0008B2
:100A4000AF0A00085D0A0008710A00087F4A934255
:100A500013D02CE03B68DB683B6229E03B68DB6835
:100A600004333B6224E03B68DB6808333B621FE0F1
:100A70003B68DB680C333B621AE03B689B68002BE9
:100A800002D104233B6213E03B689B68012B05D134
:100A900008233B627B68FA691A6109E008233B621C
:100AA0007B68FA695A6103E000233B6200E000BF03
:100AB000BB69FF2B01D87B6801E07B6804337B6155
:100AC000BB69FF2B02D87B6A9B0002E07B6A083B74
:100AD0009B003B617B691A680F213B6901FA03F3B4
:100AE000DB431A40396A3B6901FA03F31A437B6915
:100AF0001A603B685B6803F08053002B00F0C180F4
:100B0000534B9B69524A43F001039361504B9B69DD
:100B100003F00103BB60BB684E4A7B6A9B0802334B
:100B200052F82330FB607B6A03F003039B000F2223
:100B300002FA03F3DB43FA681340FB607B68464A22
:100B400093421FD07B68454A934219D07B68444A40
:100B5000934213D07B68434A93420DD07B68424A4C
:100B6000934207D07B68414A934201D105230AE0B2
:100B7000062308E0042306E0032304E0022302E046
:100B8000012300E000237A6A02F0030292009340FE
:100B9000FA681343FB602F497B6A9B080233FA68AB
:100BA00041F823203B685B6803F48013002B06D0D8
:100BB0002F4B9A682E49BB6913438B6006E02C4B80
:100BC0009A68BB69DB432A4913408B603B685B68CA
:100BD00003F40013002B06D0254BDA682449BB69C7
:100BE0001343CB6006E0224BDA68BB69DB43204944
:100BF0001340CB603B685B6803F40033002B06D0E6
:100C00001B4B5A681A49BB6913434B6006E0184BEB
:100C10005A68BB69DB43164913404B603B685B680D
:100C200003F48033002B25D0114B1A681049BB699F
:100C300013430B6025E000BF0000321000003110AC
:100C400000002210000021100000121000001110FE
:100C5000001002400000014000080140000C01406B
:100C6000001001400014014000180140001C014028
:100C7000000401400B4B1A68BB69DB430949134070
:100C80000B607B6A01337B623B681A687B6A22FADD
:100C900003F3002B7FF47EAE00BF00BF2C37BD46B0
:100CA00080BC70470004014080B586B000AF78601A
:100CB0007B68002B01D101236CE27B681B6803F089
:100CC0000103002B00F08780924B5B6803F00C035C
:100CD000042B0CD08F4B5B6803F00C03082B12D154
:100CE0008C4B5B6803F48033B3F5803F0BD1894BA9
:100CF0001B6803F40033002B6CD07B685B68002B0F
:100D000068D1012346E27B685B68B3F5803F06D17A
:100D1000804B1B687F4A43F4803313602EE07B686E
:100D20005B68002B0CD17B4B1B687A4A23F4803321
:100D30001360784B1B68774A23F4802313601DE00F
:100D40007B685B68B3F5A02F0CD1724B1B68714AAE
:100D500043F4802313606F4B1B686E4A43F4803367
:100D600013600BE06B4B1B686A4A23F480331360FB
:100D7000684B1B68674A23F4802313607B685B68B9
:100D8000002B13D0FFF712FD386108E0FFF70EFDCE
:100D900002463B69D31A642B01D90323FAE15D4B68
:100DA0001B6803F40033002BF0D014E0FFF7FEFCC7
:100DB000386108E0FFF7FAFC02463B69D31A642B5E
:100DC00001D90323E6E1534B1B6803F40033002BE6
:100DD000F0D100E000BF7B681B6803F00203002B2A
:100DE00063D04C4B5B6803F00C03002B0BD0494BDA
:100DF0005B6803F00C03082B1CD1464B5B6803F4C3
:100E00008033002B16D1434B1B6803F00203002BE9
:100E100005D07B681B69012B01D00123BAE13D4B52
:100E20001B6823F0F8027B685B69DB0039491343D8
:100E30000B603AE07B681B69002B20D0364B012207
:100E40001A60FFF7B3FC386108E0FFF7AFFC024619
:100E50003B69D31A022B01D903239BE12D4B1B685D
:100E600003F00203002BF0D02A4B1B6823F0F8029A
:100E70007B685B69DB00274913430B6015E0264B59
:100E800000221A60FFF792FC386108E0FFF78EFC41
:100E900002463B69D31A022B01D903237AE11D4B89
:100EA0001B6803F00203002BF0D17B681B6803F082
:100EB0000803002B3AD07B689B69002B19D0174B95
:100EC00001221A60FFF772FC386108E0FFF76EFC40
:100ED00002463B69D31A022B01D903235AE10D4B79
:100EE0005B6A03F00203002BF0D0012000F0FCFA53
:100EF0001CE00A4B00221A60FFF758FC38610FE033
:100F0000FFF754FC02463B69D31A022B08D903238E
:100F100040E100BF00100240000042428004424213
:100F20009E4B5B6A03F00203002BE9D17B681B68D0
:100F300003F00403002B00F0A6800023FB75974B01
:100F4000DB6903F08053002B0DD1944BDB69934A8E
:100F500043F08053D361914BDB6903F08053BB6056
:100F6000BB680123FB758E4B1B6803F48073002B59
:100F700018D18B4B1B688A4A43F480731360FFF7C8
:100F800015FC386108E0FFF711FC02463B69D31AF3
:100F9000642B01D90323FDE0814B1B6803F48073AC
:100FA000002BF0D07B68DB68012B06D17B4B1B6AE2
:100FB0007A4A43F0010313622DE07B68DB68002B63
:100FC0000CD1764B1B6A754A23F001031362734BF5
:100FD0001B6A724A23F0040313621CE07B68DB681F
:100FE000052B0CD16D4B1B6A6C4A43F00403136252
:100FF0006A4B1B6A694A43F0010313620BE0674BBB
:101000001B6A664A23F001031362644B1B6A634A3E
:1010100023F0040313627B68DB68002B15D0FFF715
:10102000C5FB38610AE0FFF7C1FB02463B69D31AF2
:1010300041F28832934201D90323ABE0574B1B6A3C
:1010400003F00203002BEED014E0FFF7AFFB386192
:101050000AE0FFF7ABFB02463B69D31A41F2883244
:10106000934201D9032395E04C4B1B6A03F0020322
:10107000002BEED1FB7D012B05D1484BDB69474AA4
:1010800023F08053D3617B68DB69002B00F0818003
:10109000424B5B6803F00C03082B61D07B68DB6973
:1010A000022B46D13F4B00221A60FFF77FFB3861CD
:1010B00008E0FFF77BFB02463B69D31A022B01D9FC
:1010C000032367E0354B1B6803F00073002BF0D15E
:1010D0007B681B6AB3F5803F08D1304B5B6823F413
:1010E00000327B689B682D4913434B602B4B5B6838
:1010F00023F474127B68196A7B685B6A0B43274987
:1011000013434B60274B01221A60FFF74FFB3861F6
:1011100008E0FFF74BFB02463B69D31A022B01D9CB
:10112000032337E01D4B1B6803F00073002BF0D046
:101130002FE01C4B00221A60FFF738FB386108E0F3
:10114000FFF734FB02463B69D31A022B01D9032374
:1011500020E0124B1B6803F00073002BF0D118E065
:101160007B68DB69012B01D1012313E00B4B5B682A
:10117000FB60FB6803F480327B681B6A9A4206D1ED
:10118000FB6803F470127B685B6A9A4201D001230A
:1011900000E0002318461837BD4680BD001002400D
:1011A000007000406000424280B584B000AF7860BB
:1011B00039607B68002B01D10123D0E06A4B1B68AA
:1011C00003F007033A689A4210D9674B1B6823F073
:1011D000070265493B6813430B60634B1B6803F0D0
:1011E00007033A689A4201D00123B8E07B681B6884
:1011F00003F00203002B20D07B681B6803F004037C
:10120000002B05D0594B5B68584A43F4E0635360A8
:101210007B681B6803F00803002B05D0534B5B6809
:10122000524A43F460535360504B5B6823F0F00222
:101230007B689B684D4913434B607B681B6803F0D8
:101240000103002B40D07B685B68012B07D1474B23
:101250001B6803F40033002B15D101237FE07B686A
:101260005B68022B07D1414B1B6803F00073002B16
:1012700009D1012373E03D4B1B6803F00203002BEF
:1012800001D101236BE0394B5B6823F003027B68DB
:101290005B68364913434B60FFF788FAF8600AE051
:1012A000FFF784FA0246FB68D31A41F28832934270
:1012B00001D9032353E02D4B5B6803F00C027B68DC
:1012C0005B689B009A42EBD1274B1B6803F0070336
:1012D0003A689A4210D2244B1B6823F00702224935
:1012E0003B6813430B60204B1B6803F007033A680D
:1012F0009A4201D0012332E07B681B6803F00403AB
:10130000002B08D0194B5B6823F4E0627B68DB6834
:10131000164913434B607B681B6803F00803002BDE
:1013200009D0124B5B6823F460527B681B69DB00B9
:101330000E4913434B6000F021F802460B4B5B68EB
:101340001B0903F00F030A49CB5C22FA03F3094A95
:101350001360094B1B681846FFF726F9002318464F
:101360001037BD4680BD00BF002002400010024083
:101370008C3B0008000000200400002080B487B0EF
:1013800000AF0023FB600023BB6000237B610023D0
:101390007B6000233B611E4B5B68FB60FB6803F0D6
:1013A0000C03042B02D0082B03D027E0194B3B6120
:1013B00027E0FB689B0C03F00F03174AD35C7B60AC
:1013C000FB6803F48033002B10D0114B5B685B0C7F
:1013D00003F00103114AD35CBB607B680D4A02FB3A
:1013E00003F2BB68B2FBF3F37B6104E07B680C4A59
:1013F00002FB03F37B617B693B6102E0054B3B61D0
:1014000000BF3B6918461C37BD4680BC704700BF13
:101410000010024000127A00A43B0008B43B000810
:1014200000093D0080B400AF024B1B681846BD4662
:1014300080BC70470000002080B500AFFFF7F2FFCE
:101440000246054B5B681B0A03F007030349CB5CAC
:1014500022FA03F3184680BD001002409C3B0008AE
:1014600080B500AFFFF7DEFF0246054B5B68DB0A85
:1014700003F007030349CB5C22FA03F3184680BD4F
:10148000001002409C3B000880B483B000AF78603D
:1014900039607B680F221A60114B5B6803F003020E
:1014A0007B685A600E4B5B6803F0F0027B689A60C1
:1014B0000B4B5B6803F4E0627B68DA60084B5B68A7
:1014C000DB0803F4E0627B681A61064B1B6803F0DB
:1014D00007023B681A6000BF0C37BD4680BC7047EE
:1014E000001002400020024080B485B000AF786058
:1014F0000A4B1B680A4AA2FB03235B0A7A6802FBB9
:1015000003F3FB6000BFFB685A1EFA60002BF9D1A1
:1015100000BF00BF1437BD4680BC704700000020EC
:10152000D34D621080B582B000AF78607B68002B2D
:1015300001D1012341E07B6893F83D30DBB2002B01
:1015400006D17B68002283F83C20786800F039F8E7
:101550007B68022283F83D207B681A687B6804332D
:101560001946104600F0AAF97B68012283F846204C
:101570007B68012283F83E207B68012283F83F20AC
:101580007B68012283F840207B68012283F8412098
:101590007B68012283F842207B68012283F8432084
:1015A0007B68012283F844207B68012283F8452070
:1015B0007B68012283F83D20002318460837BD468A
:1015C00080BD80B483B000AF786000BF0C37BD46EB
:1015D00080BC704780B485B000AF78607B6893F8BA
:1015E0003D30DBB2012B01D0012344E07B680222B5
:1015F00083F83D207B681B68DA687B681B6842F0D3
:101600000102DA607B681B681D4A934218D07B6830
:101610001B681C4A934213D07B681B68B3F1804F50
:101620000ED07B681B68184A934209D07B681B6800
:10163000164A934204D07B681B68154A934211D125
:101640007B681B689B6803F00703FB60FB68062B45
:1016500010D07B681B681A687B681B6842F0010227
:101660001A6007E07B681B681A687B681B6842F099
:1016700001021A60002318461437BD4680BC70472B
:10168000002C0140003401400004004000080040EC
:10169000000C004080B584B000AF78607B681B68A8
:1016A000DB68FB607B681B681B69BB60BB6803F081
:1016B0000203002B20D0FB6803F00203002B1BD099
:1016C0007B681B686FF002021A617B6801221A773F
:1016D0007B681B689B6903F00303002B03D07868C9
:1016E00000F0D1F805E0786800F0C4F8786800F000
:1016F000D3F87B6800221A77BB6803F00403002B41
:1017000020D0FB6803F00403002B1BD07B681B6810
:101710006FF004021A617B6802221A777B681B68EB
:101720009B6903F44073002B03D0786800F0ABF89A
:1017300005E0786800F09EF8786800F0ADF87B6806
:1017400000221A77BB6803F00803002B20D0FB6847
:1017500003F00803002B1BD07B681B686FF00802A6
:101760001A617B6804221A777B681B68DB6903F0C7
:101770000303002B03D0786800F085F805E0786853
:1017800000F078F8786800F087F87B6800221A7714
:10179000BB6803F01003002B20D0FB6803F010039C
:1017A000002B1BD07B681B686FF010021A617B68EE
:1017B00008221A777B681B68DB6903F44073002BEF
:1017C00003D0786800F05FF805E0786800F052F820
:1017D000786800F061F87B6800221A77BB6803F034
:1017E0000103002B0CD0FB6803F00103002B07D092
:1017F0007B681B686FF001021A617868FEF718FEBB
:10180000BB6803F08003002B0CD0FB6803F080035F
:10181000002B07D07B681B686FF080021A61786824
:1018200000F0DBF8BB6803F04003002B0CD0FB6832
:1018300003F04003002B07D07B681B686FF0400269
:101840001A61786800F031F8BB6803F02003002BC0
:101850000CD0FB6803F02003002B07D07B681B68CB
:101860006FF020021A61786800F0AEF800BF103700
:10187000BD4680BD80B483B000AF786000BF0C3738
:10188000BD4680BC704780B483B000AF786000BFB5
:101890000C37BD4680BC704780B483B000AF786021
:1018A00000BF0C37BD4680BC704780B483B000AF2A
:1018B000786000BF0C37BD4680BC704780B485B0EF
:1018C00000AF786039607B681B68FB607B68394AD1
:1018D000934213D07B68384A93420FD07B68B3F1B0
:1018E000804F0BD07B68354A934207D07B68344ADF
:1018F000934203D07B68334A934208D1FB6823F0BC
:101900007003FB603B685B68FA681343FB607B68AD
:10191000284A934213D07B68274A93420FD07B68B2
:10192000B3F1804F0BD07B68244A934207D07B6889
:10193000234A934203D07B68224A934208D1FB6832
:1019400023F44073FB603B68DB68FA681343FB6079
:10195000FB6823F080023B685B691343FB607B6894
:10196000FA681A603B689A687B68DA623B681A68B2
:101970007B689A627B680F4A934203D07B680E4A69
:10198000934203D13B681A697B681A637B68012222
:101990005A617B681B6903F00103002B05D07B684B
:1019A0001B6923F001027B681A6100BF1437BD4632
:1019B00080BC7047002C014000340140000400400E
:1019C00000080040000C004080B483B000AF786095
:1019D00000BF0C37BD4680BC704780B483B000AFF9
:1019E000786000BF0C37BD4680BC704780B582B0C0
:1019F00000AF78607B68002B01D1012342E07B6857
:101A000093F84130DBB2002B06D17B68002283F8CB
:101A100040207868FEF77CFD7B68242283F8412013
:101A20007B681B68DA687B681B6822F40052DA6006
:101A3000786800F071F97B681B681A697B681B681D
:101A400022F490421A617B681B685A697B681B68A4
:101A500022F02A025A617B681B68DA687B681B687F
:101A600042F40052DA607B6800225A647B682022CC
:101A700083F841207B68202283F842207B68002283
:101A80005A63002318460837BD4680BD80B58AB02A
:101A900002AFF860B9603B601346FB8000237B61B6
:101AA000FB6893F84130DBB2202B75D1BB68002B6B
:101AB00002D0FB88002B01D101236EE0FB680022DD
:101AC0005A64FB68212283F84120FEF76FFE78619B
:101AD000FB68FA889A84FB68FA88DA84FB689B685A
:101AE000B3F5805F08D1FB681B69002B04D100238C
:101AF000FB61BB68BB6103E0BB68FB610023BB61AA
:101B00002EE03B6800937B6900228021F86800F09A
:101B100048F80346002B05D0FB68202283F84120BB
:101B200003233AE0FB69002B0BD1BB691B881A46E3
:101B3000FB681B68C2F308025A60BB690233BB61D1
:101B400007E0FB691A78FB681B685A60FB69013380
:101B5000FB61FB68DB8C9BB2013B9AB2FB68DA84C9
:101B6000FB68DB8C9BB2002BCBD13B6800937B697D
:101B700000224021F86800F014F80346002B05D03D
:101B8000FB68202283F84120032306E0FB68202223
:101B900083F84120002300E0022318462037BD4689
:101BA00080BD80B586B000AFF860B9603B60134679
:101BB000FB713BE03B6AB3F1FF3F37D0FEF7F6FD28
:101BC00002463B68D31A3A6A9A4202D33B6A002B18
:101BD00001D103233AE0FB681B68DB6803F00403D0
:101BE000002B23D0BB68802B20D0BB68402B1DD09E
:101BF000FB681B681B6803F00803082B16D1002341
:101C00007B61FB681B681B687B61FB681B685B680A
:101C10007B617B69F86800F01DF8FB6808225A6454
:101C2000FB68002283F8402001230FE0FB681B685B
:101C30001A68BB681340BA689A420CBF012300239C
:101C4000DBB21A46FB799A42B4D000231846183703
:101C5000BD4680BD80B495B000AF78607B681B68DE
:101C60000C337B637B6B53E8003F3B633B6B23F49C
:101C70009073FB647B681B680C33FA6C3A64FB63FB
:101C8000F96B3A6C41E80023BB63BB6B002BE5D1D9
:101C90007B681B6814333B623B6A53E8003FFB617F
:101CA000FB6923F00103BB647B681B681433BA6CC7
:101CB000FA62BB62B96AFA6A41E800237B627B6A16
:101CC000002BE5D17B681B6B012B19D17B681B684E
:101CD0000C33FB60FB6853E8003FBB60BB6823F03C
:101CE00010037B647B681B680C337A6CBA617B6180
:101CF0007969BA6941E800233B613B69002BE5D172
:101D00007B68202283F842207B6800221A6300BF90
:101D10005437BD4680BC704780B584B000AF786052
:101D20007B681B681B6923F440517B68DA687B6819
:101D30001B680A431A617B689A687B681B691A43AF
:101D40007B685B691343BB607B681B68DB6823F4BB
:101D5000B05323F00C037A681268B9680B43D36060
:101D60007B681B685B6923F440717B689A697B68B8
:101D70001B680A435A617B681B682C4A934203D153
:101D8000FFF76EFBF86002E0FFF756FBF860FA68B9
:101D900013469B0013449A001A447B685B689B00BF
:101DA000B2FBF3F3224AA2FB03235B091901FA6891
:101DB00013469B0013449A001A447B685B689B009F
:101DC000B2FBF3F21A4BA3FB02035B09642000FB96
:101DD00003F3D31A1B013233154AA2FB03235B0919
:101DE00003F0F0031944FA6813469B0013449A0069
:101DF0001A447B685B689B00B2FBF3F20C4BA3FBBD
:101E000002035B09642000FB03F3D31A1B01323386
:101E1000074AA2FB03235B0903F00F027B681B68E0
:101E20000A449A6000BF1037BD4680BD00380140AB
:101E30001F85EB5180B485B000AF0346FB800023C3
:101E4000FB60B7F90630842B05D0B7F90620FB6894
:101E500013440333FB60FB6818461437BD4680BC4F
:101E6000704780B500AF00F0D9FA0023184680BD56
:101E7000F0B589B004AF786039607B685B69002B8E
:101E800020D07B689B69002B1CD07B685C687B68DA
:101E90001D687B681E697B68B3F908301846FFF738
:101EA000C9FF01467B685B697A6892690292019377
:101EB00000913B6832462946204600F0E8F8034688
:101EC000FB601CE07B685C687B681D687B681B6945
:101ED0009EB27B68B3F908301846FFF7ABFF0246A5
:101EE00007F10C03019300923B68324629462046D5
:101EF00000F02AF90346012B01D0002300E0FB6823
:101F000018461437BD46F0BD80B584B000AF786088
:101F10007B68FB60FB68002B01D0FB6800E00123BD
:101F2000184600F047FA002318461037BD4680BD1A
:101F300080B483B000AF78607B6803F108027B68EF
:101F40005A607B684FF0FF329A607B6803F10802A9
:101F50007B68DA607B6803F108027B681A617B6842
:101F600000221A6000BF0C37BD4680BC704780B4A9
:101F700083B000AF78607B6800221A6100BF0C3725
:101F8000BD4680BC704780B485B000AF78603960D2
:101F90007B685B68FB603B68FA685A60FB689A681C
:101FA0003B689A60FB689B683A685A60FB683A68CD
:101FB0009A603B687A681A617B681B685A1C7B6868
:101FC0001A6000BF1437BD4680BC704780B485B02E
:101FD00000AF786039603B681B68BB60BB68B3F1D9
:101FE000FF3F03D17B681B69FB600CE07B68083313
:101FF000FB6002E0FB685B68FB60FB685B681B687A
:10200000BA689A42F6D2FB685A683B685A603B68E5
:102010005B683A689A603B68FA689A60FB683A685D
:102020005A603B687A681A617B681B685A1C7B6837
:102030001A6000BF1437BD4680BC704780B485B0BD
:1020400000AF78607B681B69FB607B685B687A68BF
:1020500092689A607B689B687A6852685A60FB68ED
:102060005B687A689A4203D17B689A68FB685A6019
:102070007B6800221A61FB681B685A1EFB681A60A5
:10208000FB681B6818461437BD4680BC704780B596
:102090008EB004AFF860B9607A603B607B6B002B58
:1020A0000AD14FF0500383F31188BFF36F8FBFF352
:1020B0004F8F3B6200BFFEE7BB6B002B0AD14FF096
:1020C000500383F31188BFF36F8FBFF34F8FFB6112
:1020D00000BFFEE754233B613B69542B0AD04FF00D
:1020E000500383F31188BFF36F8FBFF34F8FBB6132
:1020F00000BFFEE73B69BB6B002B1ED07B6B002B48
:102100001BD0BB6B7B627B6A7A6B1A637B6A022291
:1021100083F85120002303937B6A029307F1140391
:1021200001933B6B00933B687A68B968F86800F0EC
:1021300050F8786A00F0D4F801E000237B617B69F5
:1021400018462837BD4680BD80B58CB004AFF86016
:10215000B9603B601346FB80FB889B00184600F08B
:1021600067FE78617B69002B0ED0542000F060FE82
:10217000F861FB69002B03D0FB697A691A6305E0FB
:10218000786900F021FF01E00023FB61FB69002B6F
:1021900017D0FB69002283F85120FA8800230393AB
:1021A000FB690293FB6A0193BB6A00933B68B968C1
:1021B000F86800F00EF8F86900F092F80123BB61AE
:1021C00002E04FF0FF33BB61BB6918462037BD46C4
:1021D00080BD80B588B000AFF860B9607A603B60C0
:1021E0003B6B1A6B7B6803F18043013B9B001344FC
:1021F000BB61BB6923F00703BB61BB6903F0070345
:10220000002B0AD04FF0500383F31188BFF36F8F78
:10221000BFF34F8F7B6100BFFEE7BB68002B1FD071
:102220000023FB6112E0BA68FB69134419783A6B2A
:10223000FB69134434330A461A70BA68FB691344C5
:102240001B78002B06D0FB690133FB61FB690F2B68
:10225000E9D900E000BF3B6B002283F8432003E094
:102260003B6B002283F83420BB6A062B01D906237E
:10227000BB623B6BBA6ADA623B6BBA6A5A643B6B0D
:1022800000229A643B6B04331846FFF770FE3B6BE9
:1022900018331846FFF76BFE3B6B3A6B1A61BB6A4B
:1022A000C3F107023B6B9A613B6B3A6B5A623B6B23
:1022B0000022DA643B6B002283F850203A68F96808
:1022C000B86900F003FC02463B6B1A60FB6A002B06
:1022D00002D0FB6A3A6B1A6000BF2037BD4680BD52
:1022E00080B582B000AF786000F0E0FC2A4B1B683C
:1022F0000133294A1360294B1B68002B09D1274A57
:102300007B681360244B1B68012B10D100F0BAFAD4
:102310000DE0234B1B68002B09D1204B1B68DA6AA8
:102320007B68DB6A9A4202D81C4A7B6813601D4BAB
:102330001B6801331B4A13607B68DB6A01229A40E9
:10234000194B1B681343184A13607B68DA6A1346FB
:102350009B0013449B00154A1A447B6804331946BA
:102360001046FFF710FE00F0D1FC0D4B1B68002B50
:102370000ED00A4B1B68DA6A7B68DB6A9A4207D286
:102380000B4B4FF080521A60BFF34F8FBFF36F8F2C
:1023900000BF0837BD4680BDE8030020E8020020EA
:1023A000F403002004040020F0030020EC020020CD
:1023B00004ED00E080B584B000AF78600023FB60DE
:1023C0007B68002B17D0134B1B68002B0AD04FF0F3
:1023D000500383F31188BFF36F8FBFF34F8FBB6040
:1023E00000BFFEE700F07AF80021786800F008FBF3
:1023F00000F082F8F860FB68002B07D1064B4FF025
:1024000080521A60BFF34F8FBFF36F8F00BF10373A
:10241000BD4680BD1004002004ED00E080B58AB008
:1024200004AF0023BB6000237B603A46391D07F1EF
:1024300008031846FDF7FCFE39687B68BA6802920B
:1024400001930023009300230A461E491E48FFF70C
:102450001EFE03461D4A13601C4B1B68002B02D056
:1024600001237B6101E000237B617B69012B16D195
:102470004FF0500383F31188BFF36F8FBFF34F8F7B
:102480003B6100BF124B4FF0FF321A60114B01222B
:102490001A60114B00221A6000F096FB0EE07B6977
:1024A000B3F1FF3F0AD14FF0500383F31188BFF31C
:1024B0006F8FBFF34F8FFB6000BFFEE700BF183781
:1024C000BD4680BD843B0008552800080C04002050
:1024D00008040020F4030020EC03002080B400AFC7
:1024E000044B1B680133034A136000BFBD4680BC28
:1024F000704700BF1004002080B584B000AF0023F7
:10250000FB600023BB60414B1B68002B0AD14FF0DE
:10251000500383F31188BFF36F8FBFF34F8F3B607E
:1025200000BFFEE700F0C2FB384B1B68013B374A97
:102530001360364B1B68002B61D1354B1B68002B99
:102540005DD02EE0334BDB68DB68FB60FB68183343
:102550001846FFF773FDFB6804331846FFF76EFD5E
:10256000FB68DB6A01229A402B4B1B6813432A4A03
:102570001360FB68DA6A13469B0013449B00274AEA
:102580001A44FB68043319461046FFF7FCFCFB684D
:10259000DA6A234B1B68DB6A9A4202D3214B012281
:1025A0001A601C4B1B68002BCCD1FB68002B01D0A0
:1025B00000F006FA1C4B1B687B607B68002B10D078
:1025C00000F036F80346002B02D0164B01221A60A9
:1025D0007B68013B7B607B68002BF1D1124B0022B2
:1025E0001A60104B1B68002B09D00123BB600F4BF6
:1025F0004FF080521A60BFF34F8FBFF36F8F00F020
:1026000085FBBB6818461037BD4680BD100400200E
:10261000E8030020A8030020F0030020EC020020C3
:10262000E8020020FC030020F803002004ED00E095
:1026300080B586B000AF00237B614E4B1B68002B3A
:1026400040F08E804C4B1B6801333B614A4A3B692A
:1026500013603B69002B20D1484B1B681B68002B83
:102660000AD04FF0500383F31188BFF36F8FBFF38D
:102670004F8F3B6000BFFEE7404B1B68FB60404B49
:102680001B683E4A13603E4AFB6813603D4B1B6863
:1026900001333C4A136000F093F93B4B1B683A69E5
:1026A0009A4248D3354B1B681B68002B04D1364B2C
:1026B0004FF0FF321A603EE0304B1B68DB68DB688E
:1026C000BB60BB685B687B603A697B689A4203D2F7
:1026D0002D4A7B6813602EE0BB6804331846FFF771
:1026E000ADFCBB689B6A002B04D0BB68183318464E
:1026F000FFF7A4FCBB68DB6A01229A40234B1B68EE
:102700001343224A1360BB68DA6A13469B001344E2
:102710009B001F4A1A44BB68043319461046FFF752
:1027200032FCBB68DA6A1B4B1B68DB6A9A42B9D37E
:1027300001237B61B6E7174B1B68DA6A144913461D
:102740009B0013449B000B441B68012B01D9012300
:102750007B61114B1B68002B07D001237B6104E0D8
:102760000E4B1B6801330D4A13607B6918461837FE
:10277000BD4680BD10040020EC030020A003002013
:10278000A40300200004002008040020F00300201F
:10279000EC020020E8020020FC030020F8030020E7
:1027A00080B487B000AF264B1B68002B03D0254BAD
:1027B00001221A603FE0234B00221A60224B1B6863
:1027C000FB60FB68B3FA83F3FB72FB7AC3F11F0370
:1027D0007B611E497A6913469B0013449B000B449E
:1027E0001B68002B0AD14FF0500383F31188BFF30D
:1027F0006F8FBFF34F8F7B6000BFFEE77A69134690
:102800009B0013449B00114A13443B613B695B6886
:102810005A683B695A603B695A683B6908339A4277
:1028200004D13B695B685A683B695A603B695B68E5
:10283000DB68074A136000BF1C37BD4680BC704789
:1028400010040020FC030020F0030020EC02002014
:10285000E802002080B582B000AF786000F052F846
:10286000064B1B68012BF9D9054B4FF080521A60BB
:10287000BFF34F8FBFF36F8FF0E700BFEC02002074
:1028800004ED00E080B582B000AF00237B600CE077
:102890007A6813469B0013449B00124A134418465F
:1028A000FFF746FB7B6801337B607B68062BEFD923
:1028B0000D48FFF73DFB0D48FFF73AFB0C48FFF7CB
:1028C00037FB0C48FFF734FB0B48FFF731FB0B4B92
:1028D000054A1A600A4B054A1A6000BF0837BD4610
:1028E00080BD00BFEC020020780300208C03002094
:1028F000A8030020BC030020D4030020A003002074
:10290000A403002080B582B000AF19E000F0CEF93A
:10291000104BDB68DB687B607B6804331846FFF78D
:102920008DFB0D4B1B68013B0B4A13600B4B1B6867
:10293000013B0A4A136000F0E9F9786800F010F8EA
:10294000064B1B68002BE1D100BF00BF0837BD4616
:1029500080BD00BFBC030020E8030020D00300209E
:1029600080B584B000AF78607B6893F85130002B5D
:1029700008D17B681B6B184600F026FB786800F0D6
:1029800023FB18E07B6893F85130012B03D1786862
:1029900000F01AFB0FE07B6893F85130022B0AD04D
:1029A0004FF0500383F31188BFF36F8FBFF34F8F46
:1029B000FB6000BFFEE700BF1037BD4680BD0000D2
:1029C00080B483B000AF0C4B1B681B68002B04D194
:1029D0000A4B4FF0FF321A6008E0074B1B68DB68B8
:1029E000DB687B607B685B68044A136000BF0C3760
:1029F000BD4680BC704700BFA00300200804002033
:102A000080B584B000AF78603960294B1B68FB60EB
:102A1000284B1B6804331846FFF710FB0346002BB6
:102A20000BD1244B1B68DB6A012202FA03F3DA4361
:102A3000214B1B681340204A13607B68B3F1FF3FB2
:102A40000AD13B68002B07D01A4B1B680433194688
:102A50001A48FFF798FA26E0FA687B681344BB60CF
:102A6000144B1B68BA685A60BA68FB689A4209D26C
:102A7000134B1A680F4B1B68043319461046FFF7B7
:102A8000A5FA10E00F4B1A680A4B1B68043319466D
:102A90001046FFF79BFA0C4B1B68BA689A4202D2A9
:102AA000094ABB68136000BF1037BD4680BD00BF38
:102AB000EC030020E8020020F0030020D4030020F3
:102AC000A4030020A00300200804002080B485B0E7
:102AD00000AFF860B9607A60FB68043BFB60FB689C
:102AE0004FF080721A60FB68043BFB60BB6823F008
:102AF0000102FB681A60FB68043BFB60084AFB6844
:102B00001A60FB68143BFB607A68FB681A60FB681C
:102B1000203BFB60FB6818461437BD4680BC7047FD
:102B2000252B000880B485B000AF00237B60124BDA
:102B30001B68B3F1FF3F0AD04FF0500383F31188B5
:102B4000BFF36F8FBFF34F8FFB6000BFFEE74FF007
:102B5000500383F31188BFF36F8FBFF34F8FBB60B8
:102B600000BF00BF7B68002BFCD000BF00BF143744
:102B7000BD4680BC704700BF0C0000200000000074
:102B8000074B19680868B0E8F00F80F30988BFF3B5
:102B90006F8F4FF0000080F311884EF00D0E7047DC
:102BA000E802002000BF00BF06480068006880F30C
:102BB000088862B661B6BFF34F8FBFF36F8F00DF37
:102BC00000BF00BF08ED00E080B584B000AF324B1D
:102BD000FB60FB681B78DBB27B60FB68FF221A702E
:102BE000FB681B78DBB2FB70FB78DBB203F05003B1
:102BF000DAB22A4B1A702A4B07221A6009E0284BD6
:102C00001B68013B264A1360FB78DBB25B00DBB23A
:102C1000FB70FB78DBB203F08003802BEFD0204BFE
:102C20001B68C3F10703042B0AD04FF0500383F352
:102C30001188BFF36F8FBFF34F8FBB6000BFFEE7FC
:102C4000174B1B681B02164A1360154B1B6803F4D5
:102C5000E063134A13607B68DAB2FB681A70114BA9
:102C60001B68104A43F4700313600E4B1B680D4A37
:102C700043F07043136000F0B9F80B4B00221A6068
:102C8000FFF792FFFFF78CFDFFF74CFF002318467C
:102C90001037BD4680BD00BF00E400E014040020F2
:102CA0001804002020ED00E00C00002080B483B068
:102CB00000AF4FF0500383F31188BFF36F8FBFF362
:102CC0004F8F7B6000BF0F4B1B6801330D4A1360B1
:102CD0000C4B1B68012B0FD10B4B1B68DBB2002B7D
:102CE0000AD04FF0500383F31188BFF36F8FBFF307
:102CF0004F8F3B6000BFFEE700BF0C37BD4680BC76
:102D0000704700BF0C00002004ED00E080B483B0E9
:102D100000AF114B1B68002B0AD14FF0500383F317
:102D20001188BFF36F8FBFF34F8F7B6000BFFEE74B
:102D3000094B1B68013B084A1360074B1B68002BBB
:102D400005D100233B603B6883F3118800BF00BFBF
:102D50000C37BD4680BC70470C000020000000000E
:102D6000EFF30980BFF36F8F0D4B1A6820E9F00F66
:102D700010602DE908404FF0500080F31188FFF7F4
:102D80000FFD4FF0000080F31188BDE8084019687E
:102D90000868B0E8F00F80F30988BFF36F8F7047C1
:102DA000E802002000BF00BF80B582B000AF4FF046
:102DB000500383F31188BFF36F8FBFF34F8F7B6096
:102DC00000BFFFF735FC0346002B03D0064B4FF046
:102DD00080521A6000233B603B6883F3118800BF78
:102DE00000BF0837BD4680BD04ED00E080B400AFF1
:102DF0000A4B00221A600A4B00221A60094B1B681A
:102E0000094AA2FB03239B09084A013B1360034BB9
:102E100007221A6000BFBD4680BC704710E000E08A
:102E200018E000E000000020D34D621014E000E044
:102E300080B58AB000AF78600023FB61FFF74EFBDE
:102E40005B4B1B68002B01D100F020F9594B1A682D
:102E50007B681340002B40F093807B68002B1DD0D3
:102E600008227B6813447B607B6803F00703002B18
:102E700014D07B6823F0070308337B607B6803F082
:102E80000703002B0AD04FF0500383F31188BFF3E0
:102E90006F8FBFF34F8F7B6100BFFEE77B68002B16
:102EA0006ED0454B1B687A689A4269D8434B3B62A7
:102EB000424B1B687B6204E07B6A3B627B6A1B6857
:102EC0007B627B6A5B687A689A4203D97B6A1B687B
:102ED000002BF1D1364B1B687A6A9A4250D03B6A7C
:102EE0001B6808221344FB617B6A1A683B6A1A60FC
:102EF0007B6A5A687B68D21A08235B009A421FD902
:102F00007A6A7B681344BB61BB6903F00703002B3B
:102F10000AD04FF0500383F31188BFF36F8FBFF3D4
:102F20004F8F3B6100BFFEE77B6A5A687B68D21A0D
:102F3000BB695A607B6A7A685A60B86900F008F920
:102F40001D4B1A687B6A5B68D31A1B4A13601A4BC5
:102F50001A681B4B1B689A4203D2174B1B68184A0E
:102F600013607B6A5A68134B1B681A437B6A5A606A
:102F70007B6A00221A60134B1B680133114A1360ED
:102F8000FFF7BAFAFB6903F00703002B0AD04FF0F2
:102F9000500383F31188BFF36F8FBFF34F8FFB6034
:102FA00000BFFEE7FB6918462837BD4680BD00BF5D
:102FB0002410002038100020281000201C100020B1
:102FC0002C1000203010002080B586B000AF786053
:102FD0007B687B617B68002B4DD008235B427A695C
:102FE00013447B617B693B613B695A68244B1B68D6
:102FF0001340002B0AD14FF0500383F31188BFF325
:103000006F8FBFF34F8FFB6000BFFEE73B691B680C
:10301000002B0AD04FF0500383F31188BFF36F8F5A
:10302000BFF34F8FBB6000BFFEE73B695A68144B8C
:103030001B681340002B1ED03B691B68002B1AD164
:103040003B695A680E4B1B68DB431A403B695A6068
:10305000FFF744FA3B695A680A4B1B681344094A54
:103060001360386900F074F8074B1B680133064A97
:103070001360FFF741FA00BF1837BD4680BD00BF9F
:1030800038100020281000203410002080B485B0B3
:1030900000AF4FF44063BB60274BFB60FB6803F05D
:1030A0000703002B0CD0FB680733FB60FB6823F0A1
:1030B0000703FB60BA68FB68D31A1F4A1344BB605E
:1030C000FB687B601D4A7B6813601C4B00225A60C2
:1030D0007B68BA681344FB600822FB689B1AFB609C
:1030E000FB6823F00703FB60FB68154A1360144B71
:1030F0001B6800225A60124B1B6800221A607B6812
:103100003B603B68FA68D21A3B685A600C4B1A68FD
:103110003B681A603B685B680A4A13603B685B68FF
:10312000094A1360094B4FF000421A6000BF143780
:10313000BD4680BC704700BF1C0400201C1000204E
:10314000241000202C10002028100020381000200F
:1031500080B485B000AF7860274BFB6002E0FB686D
:103160001B68FB60FB681B687A689A42F7D8FB68AB
:10317000BB60FB685B68BA6813447A689A4208D1FE
:10318000FB685A687B685B681A44FB685A60FB6896
:103190007B607B68BB607B685B68BA681A44FB68CD
:1031A0001B689A4218D1FB681A68144B1B689A4234
:1031B0000DD07B685A68FB681B685B681A447B68A3
:1031C0005A60FB681B681A687B681A6008E00B4B42
:1031D0001A687B681A6003E0FB681A687B681A60EB
:1031E000FA687B689A4202D0FB687A681A6000BF6E
:1031F0001437BD4680BC70471C10002024100020EE
:10320000014B1868704700BF1000002070B5002601
:103210000C4D0D4C641BA410A64209D100F076FCA5
:1032200000260A4D0A4C641BA410A64205D170BDAD
:1032300055F8043B98470136EEE755F8043B9847AC
:103240000136F2E7EC3B0008EC3B0008EC3B0008E1
:10325000F03B00080A44914200F1FF3300D170476F
:1032600010B511F8014B914203F8014FF9D110BD8F
:1032700003460244934200D1704703F8011BF9E76B
:1032800030B5141E05469BB0184605DA8B234FF067
:10329000FF302B601BB030BD4FF40273ADF80C3023
:1032A0000CBF234604F1FF33029305934FF6FF73DF
:1032B000024600910491ADF80E3069461E9B2846E7
:1032C00000F074F8431CBCBF8B232B60002CE1D0B2
:1032D0000022009B1A70DDE707B5009313460A46EB
:1032E000014603480068FFF7CBFF03B05DF804FB1D
:1032F000100000202DE9F0478E6882469E420C4661
:1033000090461F4638D88A8912F4906F32D02568CB
:1033100009690133A5EB010965694B4405EB4505D6
:1033200005EBD5756D109D4238BF1D46530531D54F
:10333000294600F045FB064650B90C234FF0FF30FC
:10334000CAF80030A38943F04003A381BDE8F087A9
:103350004A462169FFF77EFFA38923F4906343F077
:103360008003A38126614E4426603E466561A5EB3D
:103370000905A560BE4200D93E4632464146206856
:1033800000F0B8FAA36822689B1B32440020A360B7
:103390002260DBE72A4600F06DFB06460028E1D1FB
:1033A0005046216900F0C0FAC7E700002DE9F04F50
:1033B00098468B8907461B060D4614469DB00ED5D0
:1033C0000B6963B9402100F0FBFA2860286120B93D
:1033D0000C233B604FF0FF30D1E040236B610023B2
:1033E000099320238DF8293030234FF00109CDF8BF
:1033F0000C80DFF8A4818DF82A3023469A4613F812
:10340000012B0AB1252AF9D1BAEB040B0BD05B468C
:10341000224629463846FFF76DFF013000F0AA80AA
:10342000099A5A4409929AF80030002B00F0A280C1
:1034300000234FF0FF32CDE905230AF1010A04937E
:1034400007938DF853301A935446052214F8011B44
:10345000514800F041FA049AD8B9D00644BF20235D
:103460008DF85330110744BF2B238DF853309AF851
:1034700000302A2B15D0544600204FF00A0C079A32
:10348000214611F8013B303B092B4ED9B0B10792D0
:1034900014E0A0EB080309FA03F31343A2460493D4
:1034A000D2E7039B191D1B680391002BBBBF5B4236
:1034B00042F0020207930793B8BF049223782E2BA1
:1034C0000CD163782A2B35D1039B02341A1D1B685B
:1034D0000392002BB8BF4FF0FF330593DFF8C8A06D
:1034E00003225046217800F0F7F940B14023A0EBC9
:1034F0000A0003FA00F0049B01340343049314F818
:10350000011B062225488DF8281000F0E5F9002857
:1035100038D0234B1BBB039B073323F0070308332F
:103520000393099B3344099367E70C4601200CFB86
:103530000232A5E700234FF00A0C19460134059327
:10354000204610F8012B303A092A03D9002BC5D0A8
:103550000591C3E7044601230CFB0121F0E703AB0F
:1035600000932A4638460F4B04A9AFF30080421C53
:103570000646D6D1AB895B063FF52CAF09981DB046
:10358000BDE8F08F03AB00932A463846054B04A9EB
:1035900000F07CF8EBE700BFB63B0008C03B00083A
:1035A00000000000F5320008BC3B00082DE9F047A0
:1035B000164699468A680B6907469342B8BF134678
:1035C000336091F843200C46DDF820800AB10133C6
:1035D00033602368990642BF33680233336025683D
:1035E00015F0060506D104F1190AE36832689B1A42
:1035F000AB4228DC94F84320131E226818BF012335
:1036000092062DD44946384604F14302C0470130A2
:1036100020D02368E56803F00603042B18BF0025BB
:1036200032684FF00006A36808BFAD1A226908BFD0
:1036300025EAE5759342C4BF9B1AED181A34B542CA
:103640001AD1002008E00123524649463846C047B7
:10365000013003D14FF0FF30BDE8F0870135C4E7FA
:103660003020E11881F843005A1C94F84510224498
:10367000023382F84310C5E7012322464946384603
:10368000C0470130E6D00136D9E700002DE9FF47F9
:103690000C46277E9146782F80469A460C9904F175
:1036A000430207D8622F0AD8002F00F0D980582F84
:1036B00000F0A48004F1420684F842703AE0A7F1D9
:1036C0006303152BF6D801A050F823F02537000826
:1036D00039370008B5360008B5360008B536000899
:1036E000B536000839370008B5360008B536000889
:1036F000B5360008B53600084738000869370008B5
:1037000029380008B5360008B536000869380008C1
:10371000B536000869370008B5360008B536000828
:10372000313800080B6804F142061A1D1B680A6054
:1037300084F842300123A4E0256808682E0600F1D1
:1037400004030AD505680B60002D03DA2D236D42B2
:1037500084F843300A235E4819E015F0400F0568ED
:103760000B6018BF2DB2EFE70B682568181D0860C5
:10377000280601D51D6802E06906FBD51D886F2F5C
:103780000CBF08230A235248002184F843106668BE
:10379000002EA8BF2168A660A4BF21F0040121600B
:1037A0000DB9002E4DD01646B5FBF3F103FB1157B2
:1037B000C75D06F8017D2F46BB420D46F4D9082BA4
:1037C0000BD12368DF0708D5236961689942DEBF02
:1037D000302306F8013C06F1FF36921B22614B466E
:1037E00021464046CDF800A003AAFFF7DFFE0130D6
:1037F0004CD14FF0FF3004B0BDE8F087344884F876
:1038000045700E68236856F8045B1F060E6014D5D9
:10381000D90744BF43F0200323601DB9236823F078
:10382000200323601023AFE7236843F020032360C5
:103830007823284884F84530E3E75E0648BFADB2F8
:10384000E6E71646BBE70B6826681D1D60690D603C
:1038500035061B6801D5186002E07106FBD518809B
:10386000002316462361BAE70B681A1D0A601E681A
:1038700000213046626800F02FF808B1801B6060BC
:1038800063682361002384F84330A8E73246494641
:1038900040462369D0470130ABD023689B0713D43F
:1038A000E068039B9842B8BF1846A4E7012332465C
:1038B00049464046D04701309BD00135E368039923
:1038C0005B1AAB42F2DCEBE7002504F11906F5E7E1
:1038D000C73B0008D83B0008034610B5C9B20244F4
:1038E0009342184601D1002003E0047801338C4252
:1038F000F6D110BD884210B501EB020402D9844212
:10390000234607D8431EA14208D011F8012B03F823
:10391000012FF8E7014602448A4200D110BD13F896
:10392000014D02F8014DF7E738B50546002943D0AF
:1039300051F8043C0C1F002BB8BFE41800F0D0F87D
:103940001E4A1368104633B9636014602846BDE808
:10395000384000F0CBB8A3420AD9216862189342DC
:1039600001BF1A685B685218226063600460EDE76B
:103970001A465B680BB1A342FAD911685018A042ED
:103980000BD120680144501883421160DED11868C1
:103990005B68014411605360D8E702D90C232B60A7
:1039A000D4E7206821188B4201BF19685B680918A9
:1039B000216063605460C9E738BD00BF3C1000203F
:1039C000F8B5CD1C25F0030508350C2D38BF0C25A6
:1039D000002D064601DBA94203D90C2333600020E9
:1039E000F8BD00F07DF821490A6814469CB9204FC3
:1039F0003B6823B92146304600F062F8386029461A
:103A0000304600F05DF8431C23D10C233046336070
:103A100000F06CF8E3E723685B1B17D40B2B03D98A
:103A200023601C44256004E06368A2420CBF0B6065
:103A30005360304600F05AF804F10B00231D20F0CB
:103A40000700C21ACCD01B1AA350C9E722466468EB
:103A5000CCE7C41C24F00304A042E3D0211A304672
:103A600000F02EF80130DDD1CFE700BF3C10002080
:103A700040100020F8B5074614460E4621B91146FD
:103A8000BDE8F840FFF79CBF22B9FFF74DFF254680
:103A90002846F8BD00F030F8A0420FD22146384643
:103AA000FFF78EFF05460028F2D031462246FFF789
:103AB000D1FB31463846FFF737FFE9E73546E7E700
:103AC00038B50023054D044608462B60FCF7E4FD9D
:103AD000431C02D12B6803B1236038BD08110020BC
:103AE000014800F011B800BF10110020014800F09B
:103AF0000CB800BF1011002051F8043C181F002B17
:103B0000BCBF0B58C018704770477047F8B500BF6E
:103B1000F8BC08BC9E467047F8B500BFF8BC08BCAE
:043B20009E46704706
:103B24006D795461736B3031000000006D7954611C
:103B3400736B303200000000243B000815040008B9
:103B440003000000000000008000000000000000EE
:103B540000000000303B0008F903000802000000E8
:103B640000000000800000000000000000000000D1
:103B74005461736B203200005461736B2031000078
:103B840049444C4500000000000000000000000013
:103B940001020304060708090000000001020304EF
:103BA40002030405060708090A0B0C0D0E0F10107A
:103BB4000102232D302B2000686C4C00656667459C
:103BC4004647003031323334353637383941424391
:103BD4004445460030313233343536373839616242
:083BE400636465660000000047
:043BEC0015020008B6
:043BF000F1010008D7
:103BF40000127A001000000001000000AAAAAAAA7C
:103C0400140000200000000000000000000000007C
:103C140000000000000000000000000000000000A0
:103C24000000000000000000000000000000000090
:103C34000000000000000000000000000000000080
:103C44000000000000000000000000000000000070
:103C54000000000000000000000000000000000060
:043C6400000000005C
:0400000508000711D7
:00000001FF
