:020000040800F2
:1000000000C0002061060008850500088B05000877
:1000100091050008970500089D05000800000000F4
:10002000000000000000000000000000A305000820
:10003000AF05000800000000BB050008C705000868
:10004000A9060008A9060008A9060008A9060008D4
:10005000A9060008A9060008A9060008A9060008C4
:10006000A9060008A9060008A9060008A9060008B4
:10007000A9060008A9060008A9060008A9060008A4
:10008000A9060008A9060008A9060008A906000894
:10009000A9060008A9060008A9060008A906000884
:1000A000A9060008A9060008A9060008A906000874
:1000B000A9060008A9060008D5050008A906000839
:1000C000A9060008A9060008A9060008A906000854
:1000D000A9060008A9060008A9060008A906000844
:1000E000A9060008A9060008A9060008A906000834
:1000F000A9060008A9060008A9060008A906000824
:10010000A9060008A9060008A9060008A906000813
:10011000A9060008A9060008A9060008A906000803
:10012000A9060008A9060008A9060008A9060008F3
:1001300000000000000000000000000000000000BF
:1001400000000000000000000000000000000000AF
:10015000000000000000000000000000000000009F
:10016000000000000000000000000000000000008F
:10017000000000000000000000000000000000007F
:10018000000000000000000000000000000000006F
:10019000000000000000000000000000000000005F
:1001A000000000000000000000000000000000004F
:1001B000000000000000000000000000000000003F
:1001C000000000000000000000000000000000002F
:1001D000000000000000000000000000000000001F
:0401E0005FF8E0F1F3
:1001E40010B5054C237833B9044B13B10448AFF36D
:1001F40000800123237010BD700000200000000067
:100204009026000808B5034B1BB103490348AFF31C
:10021400008008BD00000000740000209026000843
:1002240080B500AF00F040FA00F00AF800F078F86A
:1002340000F04CF8014800F0ADF8FBE7A8260008F0
:1002440080B590B000AF07F11803282200211846AA
:1002540001F0C0FD3B1D00221A605A609A60DA600A
:100264001A610123BB614FF48033FB6100233B62BD
:100274000123BB6202237B634FF48033BB634FF4DF
:10028400E013FB6307F11803184600F0B3FC0346C0
:10029400002B01D000F078F80F237B600223BB60B1
:1002A4000023FB604FF480633B6100237B613B1DB3
:1002B4000221184600F01EFF0346002B01D000F077
:1002C40063F800BF4037BD4680BD000080B500AF75
:1002D400114B124A1A60104B4FF4E1325A600E4B24
:1002E40000229A600C4B0022DA600B4B00221A6148
:1002F400094B0C225A61084B00229A61064B0022DA
:10030400DA61054801F018FB0346002B01D000F028
:100314003BF800BF80BD00BF9800002000380140BA
:1003240080B483B000AF0E4B9B690D4A43F02003A9
:1003340093610B4B9B6903F020037B607B68084B44
:100344009B69074A43F004039361054B9B6903F0DF
:1003540004033B603B6800BF0C37BD4680BC70475C
:100364000010024080B582B000AF78607B681B68E3
:10037400044A934201D100F0ADF900BF0837BD46ED
:1003840080BD00BF0008004080B400AF72B600BF5B
:10039400FEE700000FB480B582B000AF07F114038C
:1003A4007B607B683A692821084801F047FD4FF4D7
:1003B4007A7328220549064801F00EFB00BF08376E
:1003C400BD46BDE8804004B0704700BFE000002097
:1003D4009800002080B485B000AF154B9B69144A87
:1003E40043F001039361124B9B6903F00103BB606B
:1003F400BB680F4BDB690E4A43F08053D3610C4B4F
:10040400DB6903F080537B607B680A4B5B68FB60AD
:10041400FB6823F0E063FB60FB6843F00073FB6060
:10042400044AFB68536000BF1437BD4680BC704764
:10043400001002400000014080B588B000AF786031
:1004440007F1100300221A605A609A60DA607B6830
:100454001B681C4A934231D11B4B9B691A4A43F4D3
:1004640080439361184B9B6903F48043FB60FB68F2
:10047400154B9B69144A43F004039361124B9B6927
:1004840003F00403BB60BB684FF400733B610223B9
:100494007B610323FB6107F1100319460B4800F04D
:1004A40015FA4FF480633B6100237B610023BB6139
:1004B40007F110031946054800F008FA00BF203779
:1004C400BD4680BD003801400010024000080140D4
:1004D40080B58CB000AF78600023FB620023BB6260
:1004E400002279681E2000F0C6F91E2000F0DFF912
:1004F4001F4BDB691E4A43F00403D3611C4BDB69C9
:1005040003F00403FB60FB6807F1100207F1140316
:100514001146184600F05EFF00F034FF03465B000E
:10052400FB62FB6A134AA2FB03239B0C013BBB62E5
:10053400114B124A1A60104B40F2E732DA600E4A4D
:10054400BB6A53600C4B00221A610B4B00229A6069
:10055400094800F08DFF0346002B04D1064800F043
:10056400DFFF034600E0012318463037BD4680BD57
:100574000010024083DE1B430801002000080040F5
:1005840080B400AFFEE780B400AFFEE780B400AFF4
:10059400FEE780B400AFFEE780B400AFFEE780B4AE
:1005A40000AF00BFBD4680BC704780B400AF00BF41
:1005B400BD4680BC704780B400AF00BFBD4680BC60
:1005C400704780B400AF00BFBD4680BC70470000D8
:1005D40080B500AF024801F003F800BF80BD00BF42
:1005E4000801002080B586B000AF7860144A154B2E
:1005F400D31A7B617B693B61134B1B68002B02D1CF
:10060400114B124A1A60104B1A687B6813443A69FA
:100614009A4207D201F0B4FB03460C221A604FF051
:10062400FF3309E0084B1B68FB60074B1A687B68C3
:100634001344054A1360FB6818461837BD4680BD4D
:1006440000C00020000400008C000020680100208D
:1006540080B400AF00BFBD4680BC7047FFF7F8FF11
:100664000B480C490C4A002302E0D458C45004330C
:10067400C4188C42F9D3094A094C002301E01360E1
:100684000432A242FBD301F081FBFFF7C9FD70479E
:1006940000000020700000202027000870000020C7
:1006A40064010020FEE7000080B500AF084B1B6822
:1006B400074A43F010031360032000F0D1F80F2021
:1006C400FFF706FFFFF786FE0023184680BD00BF34
:1006D4000020024080B400AF054B1B781A46054B3E
:1006E4001B681344034A136000BFBD4680BC7047B7
:1006F400080000205001002080B400AF024B1B68AA
:100704001846BD4680BC70475001002080B485B0B7
:1007140000AF78607B6803F00703FB600C4BDB6879
:10072400BB60BA684FF6FF031340BB60FB681A0254
:10073400BB68134343F0BF6343F40033BB60044A14
:10074400BB68D36000BF1437BD4680BC704700BF90
:1007540000ED00E080B400AF044BDB681B0A03F03B
:1007640007031846BD4680BC704700BF00ED00E09B
:1007740080B483B000AF0346FB7197F90730002BB8
:100784000BDBFB7903F01F02064997F907305B097D
:10079400012000FA02F241F8232000BF0C37BD46C5
:1007A40080BC704700E100E080B483B000AF034632
:1007B4003960FB7197F90730002B0ADB3B68DAB22A
:1007C4000C4997F907301201D2B20B4483F8002385
:1007D4000AE03B68DAB20849FB7903F00F03043BF3
:1007E4001201D2B20B441A7600BF0C37BD4680BC4E
:1007F400704700BF00E100E000ED00E080B489B084
:1008040000AFF860B9607A60FB6803F00703FB612E
:10081400FB69C3F10703042B28BF0423BB61FB69F5
:100824000433062B02D9FB69033B00E000237B6100
:100834004FF0FF32BB6902FA03F3DA43BB681A4094
:100844007B699A404FF0FF317B6901FA03F3D94386
:100854007B680B40134318462437BD4680BC704761
:1008640080B582B000AF78607868FFF74FFF00BFB3
:100874000837BD4680BD80B586B000AF0346B96079
:100884007A60FB7300237B61FFF764FF78617A6809
:10089400B9687869FFF7B2FF024697F90F3011463D
:1008A4001846FFF781FF00BF1837BD4680BD80B5ED
:1008B40082B000AF0346FB7197F907301846FFF783
:1008C40057FF00BF0837BD4680BD000080B48BB021
:1008D40000AF7860396000237B6200233B6279E1DA
:1008E40001227B6A02FA03F3FB613B681B68FA6925
:1008F4001340BB61BA69FB699A4240F068813B6866
:100904005B68A04A93425ED09E4A934275D89E4A41
:10091400934258D09C4A93426FD89C4A934252D0F7
:100924009A4A934269D89A4A93424CD0984A93423D
:1009340063D8984A934246D0964A93425DD8122B84
:100944002AD8122B59D801A252F823F0CB09000857
:10095400A5090008B7090008F9090008FF090008FB
:10096400FF090008FF090008FF090008FF09000843
:10097400FF090008FF090008FF090008FF09000833
:10098400FF090008FF090008FF090008FF09000823
:10099400AD090008C10900087F4A934213D02CE036
:1009A4003B68DB683B6229E03B68DB6804333B62FD
:1009B40024E03B68DB6808333B621FE03B68DB688C
:1009C4000C333B621AE03B689B68002B02D1042382
:1009D4003B6213E03B689B68012B05D108233B6213
:1009E4007B68FA691A6109E008233B627B68FA694B
:1009F4005A6103E000233B6200E000BFBB69FF2BA8
:100A040001D87B6801E07B6804337B61BB69FF2B01
:100A140002D87B6A9B0002E07B6A083B9B003B6137
:100A24007B691A680F213B6901FA03F3DB431A401F
:100A3400396A3B6901FA03F31A437B691A603B681C
:100A44005B6803F08053002B00F0C180534B9B691B
:100A5400524A43F001039361504B9B6903F0010335
:100A6400BB60BB684E4A7B6A9B08023352F8233052
:100A7400FB607B6A03F003039B000F2202FA03F37B
:100A8400DB43FA681340FB607B68464A93421FD0FD
:100A94007B68454A934219D07B68444A934213D0F9
:100AA4007B68434A93420DD07B68424A934207D005
:100AB4007B68414A934201D105230AE0062308E0FA
:100AC400042306E0032304E0022302E0012300E000
:100AD40000237A6A02F0030292009340FA681343F7
:100AE400FB602F497B6A9B080233FA6841F8232094
:100AF4003B685B6803F48013002B06D02F4B9A6885
:100B04002E49BB6913438B6006E02C4B9A68BB6982
:100B1400DB432A4913408B603B685B6803F4001392
:100B2400002B06D0254BDA682449BB691343CB60FC
:100B340006E0224BDA68BB69DB4320491340CB60F3
:100B44003B685B6803F40033002B06D01B4B5A68E8
:100B54001A49BB6913434B6006E0184B5A68BB69DA
:100B6400DB43164913404B603B685B6803F48033F6
:100B7400002B25D0114B1A681049BB6913430B6035
:100B840025E000BF000032100000311000002210E8
:100B9400000021100000121000001110001002408B
:100BA4000000014000080140000C01400010014019
:100BB4000014014000180140001C014000040140E1
:100BC4000B4B1A68BB69DB43094913400B607B6A12
:100BD40001337B623B681A687B6A22FA03F3002BB9
:100BE4007FF47EAE00BF00BF2C37BD4680BC70478B
:100BF4000004014080B586B000AF78607B68002BAC
:100C040001D101236CE27B681B6803F00103002B14
:100C140000F08780924B5B6803F00C03042B0CD02C
:100C24008F4B5B6803F00C03082B12D18C4B5B6871
:100C340003F48033B3F5803F0BD1894B1B6803F475
:100C44000033002B6CD07B685B68002B68D10123D8
:100C540046E27B685B68B3F5803F06D1804B1B6836
:100C64007F4A43F4803313602EE07B685B68002B7B
:100C74000CD17B4B1B687A4A23F480331360784B86
:100C84001B68774A23F4802313601DE07B685B684C
:100C9400B3F5A02F0CD1724B1B68714A43F4802327
:100CA40013606F4B1B686E4A43F4803313600BE090
:100CB4006B4B1B686A4A23F480331360684B1B68D0
:100CC400674A23F4802313607B685B68002B13D08E
:100CD400FFF712FD386108E0FFF70EFD02463B699D
:100CE400D31A642B01D90323FAE15D4B1B6803F487
:100CF4000033002BF0D014E0FFF7FEFC386108E06D
:100D0400FFF7FAFC02463B69D31A642B01D903238B
:100D1400E6E1534B1B6803F40033002BF0D100E0F1
:100D240000BF7B681B6803F00203002B63D04C4BAD
:100D34005B6803F00C03002B0BD0494B5B6803F09A
:100D44000C03082B1CD1464B5B6803F48033002B47
:100D540016D1434B1B6803F00203002B05D07B68BC
:100D64001B69012B01D00123BAE13D4B1B6823F021
:100D7400F8027B685B69DB00394913430B603AE096
:100D84007B681B69002B20D0364B01221A60FFF7C9
:100D9400B3FC386108E0FFF7AFFC02463B69D31AA5
:100DA400022B01D903239BE12D4B1B6803F00203A3
:100DB400002BF0D02A4B1B6823F0F8027B685B6998
:100DC400DB00274913430B6015E0264B00221A6011
:100DD400FFF792FC386108E0FFF78EFC02463B699E
:100DE400D31A022B01D903237AE11D4B1B6803F0AC
:100DF4000203002BF0D17B681B6803F00803002B6F
:100E04003AD07B689B69002B19D0174B01221A60DA
:100E1400FFF772FC386108E0FFF76EFC02463B699D
:100E2400D31A022B01D903235AE10D4B5B6A03F059
:100E34000203002BF0D0012000F0FCFA1CE00A4B66
:100E440000221A60FFF758FC38610FE0FFF754FCEA
:100E540002463B69D31A022B08D9032340E100BFA1
:100E64000010024000004242800442429E4B5B6AF2
:100E740003F00203002BE9D17B681B6803F0040331
:100E8400002B00F0A6800023FB75974BDB6903F071
:100E94008053002B0DD1944BDB69934A43F080536C
:100EA400D361914BDB6903F08053BB60BB680123C2
:100EB400FB758E4B1B6803F48073002B18D18B4B8E
:100EC4001B688A4A43F480731360FFF715FC38618A
:100ED40008E0FFF711FC02463B69D31A642B01D9E1
:100EE4000323FDE0814B1B6803F48073002BF0D0D7
:100EF4007B68DB68012B06D17B4B1B6A7A4A43F083
:100F0400010313622DE07B68DB68002B0CD1764B68
:100F14001B6A754A23F001031362734B1B6A724AFE
:100F240023F0040313621CE07B68DB68052B0CD1FF
:100F34006D4B1B6A6C4A43F0040313626A4B1B6AD1
:100F4400694A43F0010313620BE0674B1B6A664A6C
:100F540023F001031362644B1B6A634A23F0040306
:100F640013627B68DB68002B15D0FFF7C5FB386183
:100F74000AE0FFF7C1FB02463B69D31A41F288320B
:100F8400934201D90323ABE0574B1B6A03F00203DE
:100F9400002BEED014E0FFF7AFFB38610AE0FFF757
:100FA400ABFB02463B69D31A41F28832934201D922
:100FB400032395E04C4B1B6A03F00203002BEED194
:100FC400FB7D012B05D1484BDB69474A23F0805355
:100FD400D3617B68DB69002B00F08180424B5B6846
:100FE40003F00C03082B61D07B68DB69022B46D12C
:100FF4003F4B00221A60FFF77FFB386108E0FFF7E0
:101004007BFB02463B69D31A022B01D9032367E019
:10101400354B1B6803F00073002BF0D17B681B6A0F
:10102400B3F5803F08D1304B5B6823F400327B6812
:101034009B682D4913434B602B4B5B6823F474125C
:101044007B68196A7B685B6A0B43274913434B60CF
:10105400274B01221A60FFF74FFB386108E0FFF7C6
:101064004BFB02463B69D31A022B01D9032337E019
:101074001D4B1B6803F00073002BF0D02FE01C4BBA
:1010840000221A60FFF738FB386108E0FFF734FBF1
:1010940002463B69D31A022B01D9032320E0124BE9
:1010A4001B6803F00073002BF0D118E07B68DB6948
:1010B400012B01D1012313E00B4B5B68FB60FB6840
:1010C40003F480327B681B6A9A4206D1FB6803F4FE
:1010D40070127B685B6A9A4201D0012300E000230E
:1010E40018461837BD4680BD00100240007000400D
:1010F4006000424280B584B000AF786039607B689C
:10110400002B01D10123D0E06A4B1B6803F00703D5
:101114003A689A4210D9674B1B6823F00702654965
:101124003B6813430B60634B1B6803F007033A6887
:101134009A4201D00123B8E07B681B6803F00203E4
:10114400002B20D07B681B6803F00403002B05D020
:10115400594B5B68584A43F4E06353607B681B68EF
:1011640003F00803002B05D0534B5B68524A43F449
:1011740060535360504B5B6823F0F0027B689B68BC
:101184004D4913434B607B681B6803F00103002B3C
:1011940040D07B685B68012B07D1474B1B6803F485
:1011A4000033002B15D101237FE07B685B68022BA1
:1011B40007D1414B1B6803F00073002B09D10123B5
:1011C40073E03D4B1B6803F00203002B01D10123A4
:1011D4006BE0394B5B6823F003027B685B6836493C
:1011E40013434B60FFF788FAF8600AE0FFF784FACC
:1011F4000246FB68D31A41F28832934201D9032391
:1012040053E02D4B5B6803F00C027B685B689B002A
:101214009A42EBD1274B1B6803F007033A689A42C2
:1012240010D2244B1B6823F0070222493B68134366
:101234000B60204B1B6803F007033A689A4201D005
:10124400012332E07B681B6803F00403002B08D001
:10125400194B5B6823F4E0627B68DB68164913432F
:101264004B607B681B6803F00803002B09D0124B0A
:101274005B6823F460527B681B69DB000E491343EF
:101284004B6000F021F802460B4B5B681B0903F02E
:101294000F030A49CB5C22FA03F3094A1360094B92
:1012A4001B681846FFF714F9002318461037BD468B
:1012B40080BD00BF0020024000100240B826000894
:1012C400000000200400002080B487B000AF002399
:1012D400FB600023BB6000237B6100237B60002351
:1012E4003B611E4B5B68FB60FB6803F00C03042B43
:1012F40002D0082B03D027E0194B3B6127E0FB68A1
:101304009B0C03F00F03174AD35C7B60FB6803F468
:101314008033002B10D0114B5B685B0C03F001038E
:10132400114AD35CBB607B680D4A02FB03F2BB68C5
:10133400B2FBF3F37B6104E07B680C4A02FB03F32A
:101344007B617B693B6102E0054B3B6100BF3B690C
:1013540018461C37BD4680BC704700BF00100240D1
:1013640000127A00D0260008E026000800093D009B
:1013740080B400AF024B1B681846BD4680BC704762
:101384000000002080B500AFFFF7F2FF0246054BD6
:101394005B681B0A03F007030349CB5C22FA03F3DF
:1013A400184680BD00100240C826000880B500AF72
:1013B400FFF7DEFF0246054B5B68DB0A03F0070319
:1013C4000349CB5C22FA03F3184680BD00100240A7
:1013D400C826000880B483B000AF786039607B68A9
:1013E4000F221A60114B5B6803F003027B685A609A
:1013F4000E4B5B6803F0F0027B689A600B4B5B68F2
:1014040003F4E0627B68DA60084B5B68DB0803F492
:10141400E0627B681A61064B1B6803F007023B68B5
:101424001A6000BF0C37BD4680BC704700100240F4
:101434000020024080B485B000AF78600A4B1B687E
:101444000A4AA2FB03235B0A7A6802FB03F3FB60EC
:1014540000BFFB685A1EFA60002BF9D100BF00BF21
:101464001437BD4680BC704700000020D34D621085
:1014740080B582B000AF78607B68002B01D1012376
:1014840041E07B6893F83D30DBB2002B06D17B68EA
:10149400002283F83C20786800F039F87B68022247
:1014A40083F83D207B681A687B680433194610462C
:1014B40000F0AAF97B68012283F846207B680122A8
:1014C40083F83E207B68012283F83F207B68012259
:1014D40083F840207B68012283F841207B68012245
:1014E40083F842207B68012283F843207B68012231
:1014F40083F844207B68012283F845207B6801221D
:1015040083F83D20002318460837BD4680BD80B4CB
:1015140083B000AF786000BF0C37BD4680BC704715
:1015240080B485B000AF78607B6893F83D30DBB25F
:10153400012B01D0012344E07B68022283F83D2083
:101544007B681B68DA687B681B6842F00102DA601A
:101554007B681B681D4A934218D07B681B681C4A31
:10156400934213D07B681B68B3F1804F0ED07B6825
:101574001B68184A934209D07B681B68164A934239
:1015840004D07B681B68154A934211D17B681B68A1
:101594009B6803F00703FB60FB68062B10D07B6895
:1015A4001B681A687B681B6842F001021A6007E036
:1015B4007B681B681A687B681B6842F001021A602A
:1015C400002318461437BD4680BC7047002C0140E8
:1015D400003401400004004000080040000C0040BA
:1015E40080B584B000AF78607B681B68DB68FB6003
:1015F4007B681B681B69BB60BB6803F00203002B9C
:1016040020D0FB6803F00203002B1BD07B681B680F
:101614006FF002021A617B6801221A777B681B68EB
:101624009B6903F00303002B03D0786800F0D1F822
:1016340005E0786800F0C4F8786800F0D3F87B68B7
:1016440000221A77BB6803F00403002B20D0FB6848
:1016540003F00403002B1BD07B681B686FF00402AB
:101664001A617B6802221A777B681B689B6903F402
:101674004073002B03D0786800F0ABF805E078687D
:1016840000F09EF8786800F0ADF87B6800221A77C5
:10169400BB6803F00803002B20D0FB6803F00803A9
:1016A400002B1BD07B681B686FF008021A617B68F3
:1016B40004221A777B681B68DB6903F00303002BA1
:1016C40003D0786800F085F805E0786800F078F8D1
:1016D400786800F087F87B6800221A77BB6803F00B
:1016E4001003002B20D0FB6803F01003002B1BD049
:1016F4007B681B686FF010021A617B6808221A77F6
:101704007B681B68DB6903F44073002B03D07868A3
:1017140000F05FF805E0786800F052F8786800F0AF
:1017240061F87B6800221A77BB6803F00103002B81
:101734000CD0FB6803F00103002B07D07B681B6807
:101744006FF001021A617868FEF70CFEBB6803F0C3
:101754008003002B0CD0FB6803F08003002B07D020
:101764007B681B686FF080021A61786800F0DBF810
:10177400BB6803F04003002B0CD0FB6803F040036C
:10178400002B07D07B681B686FF040021A617868F1
:1017940000F031F8BB6803F02003002B0CD0FB6889
:1017A40003F02003002B07D07B681B686FF0200236
:1017B4001A61786800F0AEF800BF1037BD4680BDEE
:1017C40080B483B000AF786000BF0C37BD4680BCE6
:1017D400704780B483B000AF786000BF0C37BD465B
:1017E40080BC704780B483B000AF786000BF0C3712
:1017F400BD4680BC704780B483B000AF786000BF42
:101804000C37BD4680BC704780B485B000AF7860AB
:1018140039607B681B68FB607B68394A934213D04C
:101824007B68384A93420FD07B68B3F1804F0BD06A
:101834007B68354A934207D07B68344A934203D08D
:101844007B68334A934208D1FB6823F07003FB6042
:101854003B685B68FA681343FB607B68284A9342E1
:1018640013D07B68274A93420FD07B68B3F1804F33
:101874000BD07B68244A934207D07B68234A934267
:1018840003D07B68224A934208D1FB6823F4407357
:10189400FB603B68DB68FA681343FB60FB6823F07A
:1018A40080023B685B691343FB607B68FA681A60DB
:1018B4003B689A687B68DA623B681A687B689A625C
:1018C4007B680F4A934203D07B680E4A934203D14C
:1018D4003B681A697B681A637B6801225A617B68DA
:1018E4001B6903F00103002B05D07B681B6923F0FF
:1018F40001027B681A6100BF1437BD4680BC704783
:10190400002C014000340140000400400008004065
:10191400000C004080B483B000AF786000BF0C3787
:10192400BD4680BC704780B483B000AF786000BF10
:101934000C37BD4680BC704780B582B000AF78607C
:101944007B68002B01D1012342E07B6893F841308E
:10195400DBB2002B06D17B68002283F84020786834
:10196400FEF76AFD7B68242283F841207B681B68AC
:10197400DA687B681B6822F40052DA60786800F049
:1019840071F97B681B681A697B681B6822F49042B2
:101994001A617B681B685A697B681B6822F02A02FB
:1019A4005A617B681B68DA687B681B6842F40052E2
:1019B400DA607B6800225A647B68202283F8412025
:1019C4007B68202283F842207B6800225A6300232C
:1019D40018460837BD4680BD80B58AB002AFF860AE
:1019E400B9603B601346FB8000237B61FB6893F87E
:1019F4004130DBB2202B75D1BB68002B02D0FB88B1
:101A0400002B01D101236EE0FB6800225A64FB68BD
:101A1400212283F84120FEF76FFE7861FB68FA8883
:101A24009A84FB68FA88DA84FB689B68B3F5805F64
:101A340008D1FB681B69002B04D10023FB61BB6840
:101A4400BB6103E0BB68FB610023BB612EE03B6824
:101A540000937B6900228021F86800F048F803466F
:101A6400002B05D0FB68202283F8412003233AE0B1
:101A7400FB69002B0BD1BB691B881A46FB681B68EA
:101A8400C2F308025A60BB690233BB6107E0FB6919
:101A94001A78FB681B685A60FB690133FB61FB68B9
:101AA400DB8C9BB2013B9AB2FB68DA84FB68DB8C6B
:101AB4009BB2002BCBD13B6800937B690022402171
:101AC400F86800F014F80346002B05D0FB682022C8
:101AD40083F84120032306E0FB68202283F8412099
:101AE400002300E0022318462037BD4680BD80B5A0
:101AF40086B000AFF860B9603B601346FB713BE011
:101B04003B6AB3F1FF3F37D0FEF7F6FD02463B6870
:101B1400D31A3A6A9A4202D33B6A002B01D10323B7
:101B24003AE0FB681B68DB6803F00403002B23D056
:101B3400BB68802B20D0BB68402B1DD0FB681B6882
:101B44001B6803F00803082B16D100237B61FB6894
:101B54001B681B687B61FB681B685B687B617B6936
:101B6400F86800F01DF8FB6808225A64FB6800223C
:101B740083F8402001230FE0FB681B681A68BB68E8
:101B84001340BA689A420CBF01230023DBB21A4601
:101B9400FB799A42B4D0002318461837BD4680BD5D
:101BA40080B495B000AF78607B681B680C337B63AE
:101BB4007B6B53E8003F3B633B6B23F49073FB6404
:101BC4007B681B680C33FA6C3A64FB63F96B3A6C00
:101BD40041E80023BB63BB6B002BE5D17B681B682A
:101BE40014333B623B6A53E8003FFB61FB6923F01B
:101BF4000103BB647B681B681433BA6CFA62BB6272
:101C0400B96AFA6A41E800237B627B6A002BE5D15A
:101C14007B681B6B012B19D17B681B680C33FB6041
:101C2400FB6853E8003FBB60BB6823F010037B6490
:101C34007B681B680C337A6CBA617B617969BA6919
:101C440041E800233B613B69002BE5D17B682022FE
:101C540083F842207B6800221A6300BF5437BD46D4
:101C640080BC704780B584B000AF78607B681B6827
:101C74001B6923F440517B68DA687B681B680A435C
:101C84001A617B689A687B681B691A437B685B6985
:101C94001343BB607B681B68DB6823F4B05323F0F9
:101CA4000C037A681268B9680B43D3607B681B68BD
:101CB4005B6923F440717B689A697B681B680A43FB
:101CC4005A617B681B682C4A934203D1FFF76EFB71
:101CD400F86002E0FFF756FBF860FA6813469B00D1
:101CE40013449A001A447B685B689B00B2FBF3F3CD
:101CF400224AA2FB03235B091901FA6813469B00DD
:101D040013449A001A447B685B689B00B2FBF3F2AD
:101D14001A4BA3FB02035B09642000FB03F3D31AF1
:101D24001B013233154AA2FB03235B0903F0F003C2
:101D34001944FA6813469B0013449A001A447B68BA
:101D44005B689B00B2FBF3F20C4BA3FB02035B0941
:101D5400642000FB03F3D31A1B013233074AA2FBAE
:101D640003235B0903F00F027B681B680A449A6033
:101D740000BF1037BD4680BD003801401F85EB51C0
:101D8400014B1868704700BF0C00002070B5002696
:101D94000C4D0D4C641BA410A64209D100F076FC36
:101DA40000260A4D0A4C641BA410A64205D170BD3E
:101DB40055F8043B98470136EEE755F8043B98473D
:101DC4000136F2E71827000818270008182700082A
:101DD4001C27000803460244934200D1704703F8CD
:101DE400011BF9E730B5141E05469BB0184605DA09
:101DF4008B234FF0FF302B601BB030BD4FF40273C8
:101E0400ADF80C300CBF234604F1FF330293059365
:101E14004FF6FF73024600910491ADF80E30694607
:101E24001E9B284600F074F8431CBCBF8B232B6018
:101E3400002CE1D00022009B1A70DDE707B5009367
:101E440013460A46014603480068FFF7CBFF03B078
:101E54005DF804FB0C0000202DE9F0478E688246F3
:101E64009E420C4690461F4638D88A8912F4906FD9
:101E740032D0256809690133A5EB010965694B4432
:101E840005EB450505EBD5756D109D4238BF1D4624
:101E9400530531D5294600F053FB064650B90C23AF
:101EA4004FF0FF30CAF80030A38943F04003A38108
:101EB400BDE8F0874A46216900F0CEFAA38923F4ED
:101EC400906343F08003A38126614E4426603E461E
:101ED4006561A5EB0905A560BE4200D93E463246C0
:101EE4004146206800F0C6FAA36822689B1B32446E
:101EF4000020A3602260DBE72A4600F07BFB064655
:101F04000028E1D15046216900F0CEFAC7E700006D
:101F14002DE9F04F98468B8907461B060D4614465B
:101F24009DB00ED50B6963B9402100F009FB286010
:101F3400286120B90C233B604FF0FF30D1E04023EF
:101F44006B610023099320238DF8293030234FF04F
:101F54000109CDF80C80DFF8A4818DF82A302346DE
:101F64009A4613F8012B0AB1252AF9D1BAEB040BCE
:101F74000BD05B46224629463846FFF76DFF0130F9
:101F840000F0AA80099A5A4409929AF80030002B6A
:101F940000F0A28000234FF0FF32CDE905230AF1BF
:101FA400010A049307938DF853301A93544605227B
:101FB40014F8011B514800F041FA049AD8B9D0062C
:101FC40044BF20238DF85330110744BF2B238DF8D1
:101FD40053309AF800302A2B15D0544600204FF085
:101FE4000A0C079A214611F8013B303B092B4ED9C4
:101FF400B0B1079214E0A0EB080309FA03F313430A
:10200400A2460493D2E7039B191D1B680391002B7E
:10201400BBBF5B4242F0020207930793B8BF04922E
:1020240023782E2B0CD163782A2B35D1039B0234D1
:102034001A1D1B680392002BB8BF4FF0FF330593A2
:10204400DFF8C8A003225046217800F0F7F940B128
:102054004023A0EB0A0003FA00F0049B013403437D
:10206400049314F8011B062225488DF8281000F06B
:10207400E5F9002838D0234B1BBB039B073323F01F
:10208400070308330393099B3344099367E70C461A
:1020940001200CFB0232A5E700234FF00A0C19467D
:1020A40001340593204610F8012B303A092A03D94C
:1020B400002BC5D00591C3E7044601230CFB012185
:1020C400F0E703AB00932A4638460F4B04A9AFF35D
:1020D4000080421C0646D6D1AB895B063FF52CAF87
:1020E40009981DB0BDE8F08F03AB00932A4638462B
:1020F400054B04A900F07CF8EBE700BFE2260008DA
:10210400EC260008000000005D1E0008E826000818
:102114002DE9F047164699468A680B6907469342AB
:10212400B8BF1346336091F843200C46DDF8208095
:102134000AB1013333602368990642BF336802331E
:102144003360256815F0060506D104F1190AE36821
:1021540032689B1AAB4228DC94F84320131E226891
:1021640018BF012392062DD44946384604F1430290
:10217400C047013020D02368E56803F00603042B30
:1021840018BF002532684FF00006A36808BFAD1AD7
:10219400226908BF25EAE5759342C4BF9B1AED186E
:1021A4001A34B5421AD1002008E0012352464946A8
:1021B4003846C047013003D14FF0FF30BDE8F08707
:1021C4000135C4E73020E11881F843005A1C94F823
:1021D40045102244023382F84310C5E70123224606
:1021E40049463846C0470130E6D00136D9E70000F9
:1021F4002DE9FF470C46277E9146782F80469A4664
:102204000C9904F1430207D8622F0AD8002F00F07A
:10221400D980582F00F0A48004F1420684F842705B
:102224003AE0A7F16303152BF6D801A050F823F088
:102234008D220008A12200081D2200081D2200088A
:102244001D2200081D220008A12200081D220008EA
:102254001D2200081D2200081D220008AF230008CB
:10226400D1220008912300081D2200081D22000825
:10227400D12300081D220008D12200081D220008D5
:102284001D220008992300080B6804F142061A1D58
:102294001B680A6084F842300123A4E025680868BA
:1022A4002E0600F104030AD505680B60002D03DA3D
:1022B4002D236D4284F843300A235E4819E015F05B
:1022C400400F05680B6018BF2DB2EFE70B68256857
:1022D400181D0860280601D51D6802E06906FBD5B3
:1022E4001D886F2F0CBF08230A235248002184F84D
:1022F40043106668002EA8BF2168A660A4BF21F021
:10230400040121600DB9002E4DD01646B5FBF3F142
:1023140003FB1157C75D06F8017D2F46BB420D46EE
:10232400F4D9082B0BD12368DF0708D5236961682A
:102334009942DEBF302306F8013C06F1FF36921BBA
:1023440022614B4621464046CDF800A003AAFFF780
:10235400DFFE01304CD14FF0FF3004B0BDE8F08710
:10236400344884F845700E68236856F8045B1F06E9
:102374000E6014D5D90744BF43F0200323601DB970
:10238400236823F0200323601023AFE7236843F07E
:10239400200323607823284884F84530E3E75E0669
:1023A40048BFADB2E6E71646BBE70B6826681D1DBD
:1023B40060690D6035061B6801D5186002E071067E
:1023C400FBD51880002316462361BAE70B681A1D53
:1023D4000A601E6800213046626800F02FF808B1D8
:1023E400801B606063682361002384F84330A8E79E
:1023F4003246494640462369D0470130ABD0236872
:102404009B0713D4E068039B9842B8BF1846A4E71F
:102414000123324649464046D04701309BD001351E
:10242400E36803995B1AAB42F2DCEBE7002504F1A5
:102434001906F5E7F326000804270008034610B53B
:10244400C9B202449342184601D1002003E0047843
:1024540001338C42F6D110BD0A44914200F1FF339E
:1024640000D1704710B511F8014B914203F8014FA8
:10247400F9D110BD884210B501EB020402D984429F
:10248400234607D8431EA14208D011F8012B03F8B4
:10249400012FF8E7014602448A4200D110BD13F827
:1024A400014D02F8014DF7E738B50546002943D040
:1024B40051F8043C0C1F002BB8BFE41800F0D0F80E
:1024C4001E4A1368104633B9636014602846BDE899
:1024D400384000F0CBB8A3420AD92168621893426D
:1024E40001BF1A685B685218226063600460EDE7FC
:1024F4001A465B680BB1A342FAD911685018A0427E
:102504000BD120680144501883421160DED1186851
:102514005B68014411605360D8E702D90C232B6037
:10252400D4E7206821188B4201BF19685B68091839
:10253400216063605460C9E738BD00BF900000208B
:10254400F8B5CD1C25F0030508350C2D38BF0C2536
:10255400002D064601DBA94203D90C233360002079
:10256400F8BD00F07DF821490A6814469CB9204F53
:102574003B6823B92146304600F062F838602946AA
:10258400304600F05DF8431C23D10C233046336001
:1025940000F06CF8E3E723685B1B17D40B2B03D91B
:1025A40023601C44256004E06368A2420CBF0B60F6
:1025B4005360304600F05AF804F10B00231D20F05C
:1025C4000700C21ACCD01B1AA350C9E7224664687C
:1025D400CCE7C41C24F00304A042E3D0211A304603
:1025E40000F02EF80130DDD1CFE700BF90000020CD
:1025F40094000020F8B5074614460E4621B911464A
:10260400BDE8F840FFF79CBF22B9FFF74DFF254610
:102614002846F8BD00F030F8A0420FD221463846D3
:10262400FFF78EFF05460028F2D031462246FFF719
:1026340013FF31463846FFF737FFE9E73546E7E74A
:1026440038B50023054D044608462B60FDF7CAFF44
:10265400431C02D12B6803B1236038BD5401002010
:10266400014800F011B800BF5C010020014800F0EF
:102674000CB800BF5C01002051F8043C181F002B6B
:10268400BCBF0B58C018704770477047F8B500BFFF
:10269400F8BC08BC9E467047F8B500BFF8BC08BC3F
:0426A4009E46704797
:1026A80048656C6C6F20576F726C642121000000C4
:1026B80000000000000000000102030406070809EA
:1026C80000000000010203040203040506070809CC
:1026D8000A0B0C0D0E0F10100102232D302B2000B9
:1026E800686C4C00656667454647003031323334C4
:1026F8003536373839414243444546003031323364
:102708003435363738396162636465660000000025
:0427180009020008AA
:04271C00E5010008CB
:1027200000127A00100000000100000010000020DC
:102730000000000000000000000000000000000099
:102740000000000000000000000000000000000089
:102750000000000000000000000000000000000079
:102760000000000000000000000000000000000069
:102770000000000000000000000000000000000059
:102780000000000000000000000000000000000049
:040000050800066188
:00000001FF
